{
  "_format": "hh-sol-artifact-1",
  "contractName": "OHMPreSale",
  "sourceName": "contracts/sale/olympus/presale/OHMPresale.sol",
  "abi": [
    {
      "inputs": [
        {
          "internalType": "address",
          "name": "_owner",
          "type": "address"
        },
        {
          "internalType": "address",
          "name": "_addressToSendDai",
          "type": "address"
        }
      ],
      "stateMutability": "nonpayable",
      "type": "constructor"
    },
    {
      "inputs": [],
      "name": "DAI",
      "outputs": [
        {
          "internalType": "address",
          "name": "",
          "type": "address"
        }
      ],
      "stateMutability": "view",
      "type": "function"
    },
    {
      "inputs": [],
      "name": "OHM",
      "outputs": [
        {
          "internalType": "address",
          "name": "",
          "type": "address"
        }
      ],
      "stateMutability": "view",
      "type": "function"
    },
    {
      "inputs": [],
      "name": "addressToSendDai",
      "outputs": [
        {
          "internalType": "address",
          "name": "",
          "type": "address"
        }
      ],
      "stateMutability": "view",
      "type": "function"
    },
    {
      "inputs": [
        {
          "internalType": "uint256",
          "name": "",
          "type": "uint256"
        }
      ],
      "name": "buyers",
      "outputs": [
        {
          "internalType": "address",
          "name": "",
          "type": "address"
        }
      ],
      "stateMutability": "view",
      "type": "function"
    },
    {
      "inputs": [],
      "name": "endOfSale",
      "outputs": [
        {
          "internalType": "uint256",
          "name": "",
          "type": "uint256"
        }
      ],
      "stateMutability": "view",
      "type": "function"
    },
    {
      "inputs": [],
      "name": "getAllotmentPerBuyer",
      "outputs": [
        {
          "internalType": "uint256",
          "name": "",
          "type": "uint256"
        }
      ],
      "stateMutability": "view",
      "type": "function"
    },
    {
      "inputs": [
        {
          "internalType": "address",
          "name": "_ohm",
          "type": "address"
        },
        {
          "internalType": "address[]",
          "name": "_buyers",
          "type": "address[]"
        },
        {
          "internalType": "uint256",
          "name": "_ohmToMint",
          "type": "uint256"
        },
        {
          "internalType": "uint256",
          "name": "_salePrice",
          "type": "uint256"
        },
        {
          "internalType": "uint256",
          "name": "_saleLength",
          "type": "uint256"
        },
        {
          "internalType": "address",
          "name": "_dai",
          "type": "address"
        }
      ],
      "name": "initialize",
      "outputs": [
        {
          "internalType": "bool",
          "name": "",
          "type": "bool"
        }
      ],
      "stateMutability": "nonpayable",
      "type": "function"
    },
    {
      "inputs": [],
      "name": "owner",
      "outputs": [
        {
          "internalType": "address",
          "name": "",
          "type": "address"
        }
      ],
      "stateMutability": "view",
      "type": "function"
    },
    {
      "inputs": [
        {
          "internalType": "uint256",
          "name": "_amountDAI",
          "type": "uint256"
        }
      ],
      "name": "purchaseOHM",
      "outputs": [
        {
          "internalType": "bool",
          "name": "",
          "type": "bool"
        }
      ],
      "stateMutability": "nonpayable",
      "type": "function"
    },
    {
      "inputs": [],
      "name": "salePrice",
      "outputs": [
        {
          "internalType": "uint256",
          "name": "",
          "type": "uint256"
        }
      ],
      "stateMutability": "view",
      "type": "function"
    },
    {
      "inputs": [],
      "name": "saleStarted",
      "outputs": [
        {
          "internalType": "bool",
          "name": "",
          "type": "bool"
        }
      ],
      "stateMutability": "view",
      "type": "function"
    },
    {
      "inputs": [
        {
          "internalType": "address",
          "name": "_sendOHMTo",
          "type": "address"
        }
      ],
      "name": "sendRemainingOHM",
      "outputs": [
        {
          "internalType": "bool",
          "name": "",
          "type": "bool"
        }
      ],
      "stateMutability": "nonpayable",
      "type": "function"
    },
    {
      "inputs": [],
      "name": "totalWhiteListed",
      "outputs": [
        {
          "internalType": "uint256",
          "name": "",
          "type": "uint256"
        }
      ],
      "stateMutability": "view",
      "type": "function"
    }
  ],
  "bytecode": "0x608060405234801561001057600080fd5b50604051611c0d380380611c0d8339818101604052604081101561003357600080fd5b81019080805190602001909291908051906020019092919050505081600360006101000a81548173ffffffffffffffffffffffffffffffffffffffff021916908373ffffffffffffffffffffffffffffffffffffffff16021790555080600460006101000a81548173ffffffffffffffffffffffffffffffffffffffff021916908373ffffffffffffffffffffffffffffffffffffffff1602179055505050611b2c806100e16000396000f3fe608060405234801561001057600080fd5b50600436106100cf5760003560e01c80639eade5ae1161008c578063d0f3ca9a11610066578063d0f3ca9a14610396578063e0bab4c4146103b4578063f2aa8218146103e8578063f51f96dd14610440576100cf565b80639eade5ae146102ea578063a07b206f14610344578063a6c41fec14610362576100cf565b80632bbaf26c146100d4578063529bdc01146101185780635c474f9e1461014c57806374f4783e1461016c5780638da5cb5b1461018a5780639dc743ce146101be575b600080fd5b610100600480360360208110156100ea57600080fd5b810190808035906020019092919050505061045e565b60405180821515815260200191505060405180910390f35b6101206108d2565b604051808273ffffffffffffffffffffffffffffffffffffffff16815260200191505060405180910390f35b6101546108f8565b60405180821515815260200191505060405180910390f35b61017461090b565b6040518082815260200191505060405180910390f35b610192610911565b604051808273ffffffffffffffffffffffffffffffffffffffff16815260200191505060405180910390f35b6102d2600480360360c08110156101d457600080fd5b81019080803573ffffffffffffffffffffffffffffffffffffffff1690602001909291908035906020019064010000000081111561021157600080fd5b82018360208201111561022357600080fd5b8035906020019184602083028401116401000000008311171561024557600080fd5b919080806020026020016040519081016040528093929190818152602001838360200280828437600081840152601f19601f820116905080830192505050505050509192919290803590602001909291908035906020019092919080359060200190929190803573ffffffffffffffffffffffffffffffffffffffff169060200190929190505050610937565b60405180821515815260200191505060405180910390f35b61032c6004803603602081101561030057600080fd5b81019080803573ffffffffffffffffffffffffffffffffffffffff169060200190929190505050610c7c565b60405180821515815260200191505060405180910390f35b61034c6110e7565b6040518082815260200191505060405180910390f35b61036a6110ed565b604051808273ffffffffffffffffffffffffffffffffffffffff16815260200191505060405180910390f35b61039e611111565b6040518082815260200191505060405180910390f35b6103bc6111ee565b604051808273ffffffffffffffffffffffffffffffffffffffff16815260200191505060405180910390f35b610414600480360360208110156103fe57600080fd5b8101908080359060200190929190505050611214565b604051808273ffffffffffffffffffffffffffffffffffffffff16815260200191505060405180910390f35b610448611253565b6040518082815260200191505060405180910390f35b600060011515600860009054906101000a900460ff161515146104e9576040517f08c379a000000000000000000000000000000000000000000000000000000000815260040180806020018281038252600b8152602001807f4e6f74207374617274656400000000000000000000000000000000000000000081525060200191505060405180910390fd5b60011515600a60003373ffffffffffffffffffffffffffffffffffffffff1673ffffffffffffffffffffffffffffffffffffffff16815260200190815260200160002060009054906101000a900460ff161515146105af576040517f08c379a000000000000000000000000000000000000000000000000000000000815260040180806020018281038252600f8152602001807f4e6f742077686974656c6973746564000000000000000000000000000000000081525060200191505060405180910390fd5b60001515600960003373ffffffffffffffffffffffffffffffffffffffff1673ffffffffffffffffffffffffffffffffffffffff16815260200190815260200160002060009054906101000a900460ff16151514610675576040517f08c379a00000000000000000000000000000000000000000000000000000000081526004018080602001828103825260148152602001807f416c72656164792070617274696369706174656400000000000000000000000081525060200191505060405180910390fd5b60075442106106ec576040517f08c379a00000000000000000000000000000000000000000000000000000000081526004018080602001828103825260098152602001807f53616c65206f766572000000000000000000000000000000000000000000000081525060200191505060405180910390fd5b6001600960003373ffffffffffffffffffffffffffffffffffffffff1673ffffffffffffffffffffffffffffffffffffffff16815260200190815260200160002060006101000a81548160ff021916908315150217905550600061077160055461076385633b9aca0061125990919063ffffffff16565b6112df90919063ffffffff16565b905061077b611111565b8111156107f0576040517f08c379a00000000000000000000000000000000000000000000000000000000081526004018080602001828103825260118152602001807f4d6f7265207468616e20616c6c6f74656400000000000000000000000000000081525060200191505060405180910390fd5b610806600160065461132990919063ffffffff16565b60068190555061087d33600460009054906101000a900473ffffffffffffffffffffffffffffffffffffffff1685600160009054906101000a900473ffffffffffffffffffffffffffffffffffffffff1673ffffffffffffffffffffffffffffffffffffffff16611373909392919063ffffffff16565b6108c8338260008054906101000a900473ffffffffffffffffffffffffffffffffffffffff1673ffffffffffffffffffffffffffffffffffffffff166114349092919063ffffffff16565b6001915050919050565b600460009054906101000a900473ffffffffffffffffffffffffffffffffffffffff1681565b600860009054906101000a900460ff1681565b60075481565b600360009054906101000a900473ffffffffffffffffffffffffffffffffffffffff1681565b6000600360009054906101000a900473ffffffffffffffffffffffffffffffffffffffff1673ffffffffffffffffffffffffffffffffffffffff163373ffffffffffffffffffffffffffffffffffffffff16146109fc576040517f08c379a00000000000000000000000000000000000000000000000000000000081526004018080602001828103825260098152602001807f4e6f74206f776e6572000000000000000000000000000000000000000000000081525060200191505060405180910390fd5b60001515600860009054906101000a900460ff16151514610a85576040517f08c379a00000000000000000000000000000000000000000000000000000000081526004018080602001828103825260138152602001807f416c726561647920696e697469616c697a65640000000000000000000000000081525060200191505060405180910390fd5b866000806101000a81548173ffffffffffffffffffffffffffffffffffffffff021916908373ffffffffffffffffffffffffffffffffffffffff16021790555081600160006101000a81548173ffffffffffffffffffffffffffffffffffffffff021916908373ffffffffffffffffffffffffffffffffffffffff1602179055508560029080519060200190610b1c929190611a04565b50855160068190555060005b8651811015610ba9576001600a6000898481518110610b4357fe5b602002602001015173ffffffffffffffffffffffffffffffffffffffff1673ffffffffffffffffffffffffffffffffffffffff16815260200190815260200160002060006101000a81548160ff0219169083151502179055508080600101915050610b28565b508673ffffffffffffffffffffffffffffffffffffffff166340c10f1930876040518363ffffffff1660e01b8152600401808373ffffffffffffffffffffffffffffffffffffffff16815260200182815260200192505050600060405180830381600087803b158015610c1b57600080fd5b505af1158015610c2f573d6000803e3d6000fd5b5050505083600581905550610c4d42846114d690919063ffffffff16565b6007819055506001600860006101000a81548160ff021916908315150217905550600190509695505050505050565b6000600360009054906101000a900473ffffffffffffffffffffffffffffffffffffffff1673ffffffffffffffffffffffffffffffffffffffff163373ffffffffffffffffffffffffffffffffffffffff1614610d41576040517f08c379a00000000000000000000000000000000000000000000000000000000081526004018080602001828103825260098152602001807f4e6f74206f776e6572000000000000000000000000000000000000000000000081525060200191505060405180910390fd5b60011515600860009054906101000a900460ff16151514610dca576040517f08c379a000000000000000000000000000000000000000000000000000000000815260040180806020018281038252600b8152602001807f4e6f74207374617274656400000000000000000000000000000000000000000081525060200191505060405180910390fd5b600754421015610e42576040517f08c379a00000000000000000000000000000000000000000000000000000000081526004018080602001828103825260098152602001807f4e6f7420656e646564000000000000000000000000000000000000000000000081525060200191505060405180910390fd5b60008054906101000a900473ffffffffffffffffffffffffffffffffffffffff1673ffffffffffffffffffffffffffffffffffffffff1663095ea7b33360008054906101000a900473ffffffffffffffffffffffffffffffffffffffff1673ffffffffffffffffffffffffffffffffffffffff166370a08231306040518263ffffffff1660e01b8152600401808273ffffffffffffffffffffffffffffffffffffffff16815260200191505060206040518083038186803b158015610f0657600080fd5b505afa158015610f1a573d6000803e3d6000fd5b505050506040513d6020811015610f3057600080fd5b81019080805190602001909291905050506040518363ffffffff1660e01b8152600401808373ffffffffffffffffffffffffffffffffffffffff16815260200182815260200192505050602060405180830381600087803b158015610f9457600080fd5b505af1158015610fa8573d6000803e3d6000fd5b505050506040513d6020811015610fbe57600080fd5b8101908080519060200190929190505050506110de308360008054906101000a900473ffffffffffffffffffffffffffffffffffffffff1673ffffffffffffffffffffffffffffffffffffffff166370a08231306040518263ffffffff1660e01b8152600401808273ffffffffffffffffffffffffffffffffffffffff16815260200191505060206040518083038186803b15801561105c57600080fd5b505afa158015611070573d6000803e3d6000fd5b505050506040513d602081101561108657600080fd5b810190808051906020019092919050505060008054906101000a900473ffffffffffffffffffffffffffffffffffffffff1673ffffffffffffffffffffffffffffffffffffffff16611373909392919063ffffffff16565b60019050919050565b60065481565b60008054906101000a900473ffffffffffffffffffffffffffffffffffffffff1681565b60006111e960065460008054906101000a900473ffffffffffffffffffffffffffffffffffffffff1673ffffffffffffffffffffffffffffffffffffffff166370a08231306040518263ffffffff1660e01b8152600401808273ffffffffffffffffffffffffffffffffffffffff16815260200191505060206040518083038186803b1580156111a057600080fd5b505afa1580156111b4573d6000803e3d6000fd5b505050506040513d60208110156111ca57600080fd5b81019080805190602001909291905050506112df90919063ffffffff16565b905090565b600160009054906101000a900473ffffffffffffffffffffffffffffffffffffffff1681565b6002818154811061122457600080fd5b906000526020600020016000915054906101000a900473ffffffffffffffffffffffffffffffffffffffff1681565b60055481565b60008083141561126c57600090506112d9565b600082840290508284828161127d57fe5b04146112d4576040517f08c379a0000000000000000000000000000000000000000000000000000000008152600401808060200182810382526021815260200180611aac6021913960400191505060405180910390fd5b809150505b92915050565b600061132183836040518060400160405280601a81526020017f536166654d6174683a206469766973696f6e206279207a65726f00000000000081525061155e565b905092915050565b600061136b83836040518060400160405280601e81526020017f536166654d6174683a207375627472616374696f6e206f766572666c6f770000815250611624565b905092915050565b61142e846323b872dd60e01b858585604051602401808473ffffffffffffffffffffffffffffffffffffffff1681526020018373ffffffffffffffffffffffffffffffffffffffff1681526020018281526020019350505050604051602081830303815290604052907bffffffffffffffffffffffffffffffffffffffffffffffffffffffff19166020820180517bffffffffffffffffffffffffffffffffffffffffffffffffffffffff83818316178352505050506116e4565b50505050565b6114d18363a9059cbb60e01b8484604051602401808373ffffffffffffffffffffffffffffffffffffffff16815260200182815260200192505050604051602081830303815290604052907bffffffffffffffffffffffffffffffffffffffffffffffffffffffff19166020820180517bffffffffffffffffffffffffffffffffffffffffffffffffffffffff83818316178352505050506116e4565b505050565b600080828401905083811015611554576040517f08c379a000000000000000000000000000000000000000000000000000000000815260040180806020018281038252601b8152602001807f536166654d6174683a206164646974696f6e206f766572666c6f77000000000081525060200191505060405180910390fd5b8091505092915050565b6000808311829061160a576040517f08c379a00000000000000000000000000000000000000000000000000000000081526004018080602001828103825283818151815260200191508051906020019080838360005b838110156115cf5780820151818401526020810190506115b4565b50505050905090810190601f1680156115fc5780820380516001836020036101000a031916815260200191505b509250505060405180910390fd5b50600083858161161657fe5b049050809150509392505050565b60008383111582906116d1576040517f08c379a00000000000000000000000000000000000000000000000000000000081526004018080602001828103825283818151815260200191508051906020019080838360005b8381101561169657808201518184015260208101905061167b565b50505050905090810190601f1680156116c35780820380516001836020036101000a031916815260200191505b509250505060405180910390fd5b5060008385039050809150509392505050565b6060611746826040518060400160405280602081526020017f5361666545524332303a206c6f772d6c6576656c2063616c6c206661696c65648152508573ffffffffffffffffffffffffffffffffffffffff166117d39092919063ffffffff16565b90506000815111156117ce5780806020019051602081101561176757600080fd5b81019080805190602001909291905050506117cd576040517f08c379a000000000000000000000000000000000000000000000000000000000815260040180806020018281038252602a815260200180611acd602a913960400191505060405180910390fd5b5b505050565b60606117e284846000856117eb565b90509392505050565b60606117f6856119f1565b611868576040517f08c379a000000000000000000000000000000000000000000000000000000000815260040180806020018281038252601d8152602001807f416464726573733a2063616c6c20746f206e6f6e2d636f6e747261637400000081525060200191505060405180910390fd5b600060608673ffffffffffffffffffffffffffffffffffffffff1685876040518082805190602001908083835b602083106118b85780518252602082019150602081019050602083039250611895565b6001836020036101000a03801982511681845116808217855250505050505090500191505060006040518083038185875af1925050503d806000811461191a576040519150601f19603f3d011682016040523d82523d6000602084013e61191f565b606091505b509150915081156119345780925050506119e9565b6000815111156119475780518082602001fd5b836040517f08c379a00000000000000000000000000000000000000000000000000000000081526004018080602001828103825283818151815260200191508051906020019080838360005b838110156119ae578082015181840152602081019050611993565b50505050905090810190601f1680156119db5780820380516001836020036101000a031916815260200191505b509250505060405180910390fd5b949350505050565b600080823b905060008111915050919050565b828054828255906000526020600020908101928215611a7d579160200282015b82811115611a7c5782518260006101000a81548173ffffffffffffffffffffffffffffffffffffffff021916908373ffffffffffffffffffffffffffffffffffffffff16021790555091602001919060010190611a24565b5b509050611a8a9190611a8e565b5090565b5b80821115611aa7576000816000905550600101611a8f565b509056fe536166654d6174683a206d756c7469706c69636174696f6e206f766572666c6f775361666545524332303a204552433230206f7065726174696f6e20646964206e6f742073756363656564a26469706673582212208604cb11e11ca02058bef207cf3ea30d1206a17cbcbba3b0927d24c29b8ac7b864736f6c63430007050033",
  "linkReferences": {},
  "deployedLinkReferences": {}
}